:1000000003C1000032C1000030C100002EC1000059
:100010002CC100002AC1000028C1000026C1000038
:1000200024C1000022C1000020C100001EC1000048
:100030001CC100001AC1000018C1000016C1000058
:1000400014C1000012C1000010C100000EC1000068
:100050000CC100000AC1000008C100000C94730B21
:1000600004C100000C9489080C946008FEC00000D4
:10007000FCC00000FAC00000F8C00000F6C000009C
:10008000F4C00000F2C00000F0C00000EEC00000AC
:10009000ECC00000EAC00000E8C00000D1C10000D0
:1000A000E4C00000E2C00000E0C00000DEC00000CC
:1000B000DCC00000DAC00000D8C00000D6C00000DC
:1000C000D4C00000D2C00000D0C00000CEC00000EC
:1000D000CCC00000CAC00000C8C00000C6C00000FC
:1000E000C4C00000D20416055A059D05CD051006B2
:1000F0004E068A068F0A920A810A850A890AC90A67
:10010000960A9A0AA00AA40AA80AAE0AB20AB60A6D
:10011000C90ABC0AC00AC40A00002200250028003F
:100120002B002E00310034000201000005010801FF
:100130000B0105050505070508080808020202026B
:100140000A0A080804040404010101010101010173
:100150000303030303030303040707070C0C0C0C3E
:100160000C0C0C0C02020202060606060606060627
:100170000B0B0B0B0B0B0B0B0102102020080810B4
:100180002040102040800201020108040201010207
:1001900004081020408080402010080402018004E0
:1001A000020180402010080402010804020101023B
:1001B0000408102040800102040810204080000044
:1001C0000A0B02090C0D0E080703040100000000D1
:1001D000000000000000000000000000000000001F
:1001E00000000000000000000000121110000000DC
:1001F00000000000000000000000000000000000FF
:1002000000000000A40DBD0B11241FBECFEFD1E2F2
:10021000DEBFCDBF00E00CBF13E0A0E0B2E0E2E340
:10022000F4E200E00BBF02C007900D92A032B107CC
:10023000D9F724E0A0E2B3E001C01D92A039B207D3
:10024000E1F711E0C3E0D1E000E006C02197010929
:10025000802FFE010E94200EC230D10780E00807E7
:10026000A9F70E94C20B0C940812CACE0895E0911F
:10027000680380916703E81730F4F0E0E759FC4F1A
:10028000808190E008958FEF9FEF0895909168032B
:1002900080916703981750F4E92FF0E0E759FC4F7D
:1002A000208130E09F5F9093680302C02FEF3FEF03
:1002B000C90108958091670390E020916803821B33
:1002C0009109089585ED8093BC008091BC0084FD68
:1002D000FCCF1092AF03089540914203262F30E0E7
:1002E000240F311D21323105DCF42091AF0324307D
:1002F000C9F4FC0180E090E0861758F43091420385
:100300002191DC01A05EBC4FA30FB11D2C9301967F
:10031000F3CF80914203680F6093420380E0089519
:1003200081E0089582E00895CF92DF92EF92FF92EC
:100330000F931F93CF93DF937C01262F972F8A0172
:100340008091B003882391F0C62FD72F6E01C40E81
:10035000D51ECC15DD0569F06991D701ED91FC91B1
:100360000190F081E02DC7011995F3CF642F822F02
:10037000B3DFC801DF91CF911F910F91FF90EF90F4
:10038000DF90CF900895CF93DF931F92CDB7DEB764
:1003900069832091B0032223D1F02091D30320322E
:1003A00040F021E030E0FC013383228380E090E0E4
:1003B00014C08091B103E82FF0E0EE54FC4F998116
:1003C00090838F5F8093B1038093D30304C061E077
:1003D000CE01019681DF81E090E00F90DF91CF9117
:1003E00008959C01EAE0F0E0BF010E94EA0DAC0133
:1003F000C901841B950BBF010E94EA0D842F90E177
:10040000699F800D11240895CF93DF931F92CDB77C
:10041000DEB791E09093B0036093D2031092B103E2
:100420001092D303682F81E794E04983ACDF4981C0
:10043000642F81E794E0A7DF0F90DF91CF910AC787
:100440001F920F920FB60F9211240BB60F922F939B
:100450003F934F935F936F937F938F939F93AF934C
:10046000BF93EF93FF938091B900887F803609F4A2
:100470009CC068F5883209F45BC090F4803109F4BF
:1004800054C038F4882309F4F6C0883009F44DC00C
:10049000F5C0883109F44CC0803209F45DC0EEC06B
:1004A000803409F468C048F4803309F455C08833B7
:1004B00009F0E4C08093AD03D8C0803509F44FC083
:1004C000883509F45DC0883409F0D8C0D6C08839B1
:1004D00009F4C7C0A8F4883709F467C038F488362F
:1004E00009F463C0803709F460C0C8C0883809F4D3
:1004F000B8C0803909F45FC0803809F0BFC05BC064
:10050000803B09F486C038F4803A09F466C0883A22
:1005100009F47FC0B3C0803C09F4A7C0883C09F44B
:10052000A4C0883B09F48AC0A9C080918A0310C086
:100530009091AC038091AB03981770F5E091AC03F8
:1005400081E08E0F8093AC03F0E0E557FC4F808193
:100550008093BB0085EC86C08093AD038EC0E09194
:10056000AC0381E08E0F8093AC038091BB00F0E080
:10057000E557FC4F80839091AC038091AB036EC034
:10058000E091AC0381E08E0F8093AC038091BB00BF
:10059000F0E0E557FC4F80838091AE0381116DC080
:1005A00081E08093890384EA61C083E08093AF0394
:1005B00010926603CFCF80916603803208F051C05D
:1005C000E091660381E08E0F809366038091BB000B
:1005D000F0E0EA5BFC4F8083BDCF85EC8093BC00EC
:1005E0001092AF0380916603803230F4E09166038D
:1005F000F0E0EA5BFC4F10826091660370E0E091EE
:100600004403F091450386E493E019951092660344
:1006100035C084E08093AF031092430310924203ED
:10062000E0914003F09141031995809142038111BB
:1006300005C081E08093420310922003E0914303C0
:1006400081E08E0F80934303F0E0E05EFC4F8081F9
:100650008093BB009091430380914203981708F464
:1006600079CF85E88093BC0009C085EC8093BC00FD
:100670001092AF0303C01092AD0324DEFF91EF91FF
:10068000BF91AF919F918F917F916F915F914F91AA
:100690003F912F910F900BBE0F900FBE0F901F90A8
:1006A0001895CF9381E08093B00388E68093D203BE
:1006B0001092B1031092D30360E081E794E063DE0F
:1006C000C9D567E070E088E690E021D664E670E086
:1006D00080E090E0D0D781E794E0D8DD282F2F7715
:1006E00030E094E0359527959A95E1F7CAE0C29FEE
:1006F000A001C39F500D11248F709A01280F311D46
:10070000C901ACD686E292E04DD681E794E0BEDD29
:10071000282F2F7730E044E0359527954A95E1F76B
:10072000C29FA001C39F500D11248F709A01280F02
:10073000311DC90193D681E392E034D681E794E07C
:10074000A5DD282F2F7330E054E0359527955A9575
:10075000E1F7C29FA001C39F500D11248F709A0131
:10076000280F311DC9017AD68BE392E01BD681E7B1
:1007700094E08CDD81E794E089DD282F2F7330E051
:1007800064E0359527956A95E1F7C29FA001C39F64
:10079000500D11248F709A01280F311DC9015ED6AA
:1007A00086E492E0FFD581E794E070DD282F2F7179
:1007B00030E074E0359527957A95E1F7C29FA00166
:1007C000C39F500D11248F709A01280F311DC9014C
:1007D00045D686E492E0E6D581E794E057DD9C01BA
:1007E0003327E4E035952795EA95E1F7C29FA0010C
:1007F000C39F500D11248F709A01280F311DC9011C
:100800002DD68EE193E0CF911DC6FF920F931F93DB
:10081000CF93DF93CDB7DEB72E970FB6F894DEBF38
:100820000FBECDBF84ED93E03ED3892B09F4AEC259
:10083000CE010196DDD680917D0490917E040097D3
:10084000C9F069817A816115710591F040917F0449
:10085000509180042D813E814217530748F00E9439
:10086000E8108D819E81909382048093810418C04A
:100870000E94560F89819A8190937E0480937D0413
:100880008B819C819093800480937F048D819E81D5
:1008900090938204809381041A8219821C821B82A5
:1008A0001E821D8289819A810E94560F68E472E03F
:1008B0008DE794E097D3882309F43EC284E592E063
:1008C000C1D58AE0F82ECE01099692D667E672E08D
:1008D000CE01099687D3811134C06BE672E0CE0158
:1008E000099680D3811130C06FE672E0CE0109967F
:1008F00079D381112CC061E772E0CE01099672D3E1
:10090000811128C066E772E0CE0109966BD3811190
:1009100024C06BE772E0CE01099664D3811120C038
:1009200060E872E0CE0109965DD381111CC066E8D3
:1009300072E0CE01099656D3811118C00FEF1FEF58
:1009400017C000E010E014C001E010E011C002E0A8
:1009500010E00EC003E010E00BC004E010E008C09F
:1009600005E010E005C006E010E002C007E010E07E
:100970006FE872E0CE01099635D38111D5C10830F8
:10098000110508F0CDC1F8018827EE58FF4F8F4FB1
:100990000C94200E8230910591F5298180ED820F13
:1009A0008A30B8F068EE73E080E090E064D664E0EE
:1009B00070E0CE010196FCD58130910559F789810F
:1009C00090ED980F9A3070F7082E000C990BC09795
:1009D000BDC18A8190ED980F9A3020F7022E000C4D
:1009E000330B20533109F29EA001F39E500D1124C8
:1009F000082E000C990BC097840F951FA7C1049770
:100A000089F68981823671F68A81813659F68B8121
:100A1000833641F68C818B3629F6ACC18230910544
:100A200091F5298180ED820F8A30B8F068EE73E08D
:100A300080E090E020D665E070E0CE010196B8D568
:100A40008130910559F7898190ED980F9A3070F7B0
:100A5000082E000C990BC0977EC18A8190ED980FEB
:100A60009A3020F7022E000C330B20533109F29EEE
:100A7000A001F39E500D1124082E000C990BC09775
:100A8000840F951F68C1049789F68981823671F6B3
:100A90008A81813659F68B81833641F68C818B367B
:100AA00029F668C182309105B1F5298180ED820F68
:100AB0008330B8F068EE73E080E090E0DCD564E06D
:100AC00070E0CE01019674D58130910559F7898186
:100AD00090ED980F9A3070F7082E000C990BC09784
:100AE0003FC18A8190ED980F9A3020F7022E000CBA
:100AF000330B20533109F29EA001F39E500D1124B7
:100B0000082E000C990BC097840F951F8831910512
:100B10000CF426C1CFCF049769F68981823651F64D
:100B20008A81813639F68B81833621F68C818B362A
:100B300009F0C0CF1FC10497D9F068EE73E080E0E0
:100B400090E099D564E070E0CE01019631D5813016
:100B5000910589F789819FEC980F973070F7082EDF
:100B6000000C990BC0973DDC482F68E683E001C17B
:100B70008981823611F78A818136F9F68B81833635
:100B8000E1F68C818B36C9F6F5C082309105B1F55E
:100B9000298180ED820F8430B8F068EE73E080E048
:100BA00090E069D564E070E0CE01019601D5813016
:100BB000910559F789819FEC980F993070F7082EAD
:100BC000000C990BC097D1C08A819FEC980F993087
:100BD00020F7022E000C330B20533109F29EA001A6
:100BE000F39E500D1124082E000C990BC097840F12
:100BF000951F803291050CF4B8C0CFCF049769F6E9
:100C00008981823651F68A81813639F68B81833625
:100C100021F68C818B3609F0C0CFACC00297B9F0B9
:100C200068EE73E080E090E026D564E070E0CE01ED
:100C30000196BED48130910589F7898190ED980F96
:100C40009A3070F7082E000C990BC09795C0298137
:100C500080ED820F823020F78A819FEC980F9930C7
:100C6000F8F6022E000C330B20533109F29EA0013E
:100C7000F39E500D1124082E000C990BC097840F81
:100C8000951F8D3091050CF477C0CACF8230910545
:100C900091F5298180ED820F8A30B8F068EE73E01B
:100CA00080E090E0E8D464E070E0CE01019680D46A
:100CB0008130910559F7898190ED980F9A3070F73E
:100CC000082E000C990BC0975CC08A8190ED980F9C
:100CD0009A3020F7022E000C330B20533109F29E7C
:100CE000A001F39E500D1124082E000C990BC09703
:100CF000840F951F46C0049789F68981823671F664
:100D00008A81813659F68B81833641F68C818B3608
:100D100029F630C068E070E0CE01019649D42AC0BF
:100D200084E992E08FD326C011E089859A850E94DC
:100D3000560F112309F4C7CD62E073E08DE794E00C
:100D400051D1882309F46ECDACDC6CCD4ADB482F41
:100D500068E680E00EC045DB482F68E681E009C008
:100D600040DB482F68E682E004C03BDB482F68E6A2
:100D700084E04ADB10E0D9CF34DB482F68E685E019
:100D8000F8CF2FDB482F68E686E0F3CF2E960FB61C
:100D9000F894DEBF0FBECDBFDF91CF911F910F91B1
:100DA000FF9008958CD0811125C080E090E0892BC0
:100DB00041F080E090E0892B21F00E940000811139
:100DC0001BC080E090E0892B41F080E090E0892B0F
:100DD00021F00E940000811112C080E090E0892B78
:100DE00099F080E090E0892B79F00E940000811159
:100DF00009C008950ADDD9CF0E940000E2CF0E9409
:100E00000000EBCF0C94000008950895CF92DF927C
:100E1000EF92FF920F931F93CF93DF936C017A01B0
:100E20008B01C0E0D0E0CE15DF0589F0D8016D91CF
:100E30008D01D601ED91FC910190F081E02DC6016C
:100E40001995892B11F47E0102C02196ECCFC701C0
:100E5000DF91CF911F910F91FF90EF90DF90CF9096
:100E60000895FC01918D828D981761F0828DDF01CC
:100E7000A80FB11D5D968C91928D9F5F9F73928F8D
:100E800090E008958FEF9FEF0895FC01918D828D82
:100E9000981731F0828DE80FF11D858D90E008954F
:100EA0008FEF9FEF0895FC01918D228D892F90E0A7
:100EB000805C9F4F821B91098F739927089584ED61
:100EC00093E0F1DF21E0892B09F420E0822F0895DF
:100ED000FC01848DDF01A80FB11DA35ABF4F2C91D7
:100EE000848D90E001968F739927848FA689B789A6
:100EF0002C93A089B1898C9180648C93938D848D7F
:100F0000981306C00288F389E02D80818F7D80834D
:100F10000895EF92FF920F931F93CF93DF93EC010D
:100F200081E0888F9B8D8C8D981305C0E889F989A5
:100F3000808185FD23C0F62E0B8D10E00F5F1F4FC3
:100F40000F731127E02E8C8DE8120BC00FB607FC33
:100F5000FACFE889F989808185FFF5CFCE01B8DF26
:100F6000F2CF8B8DFE01E80FF11DE35AFF4FF082A7
:100F70000B8FEA89FB898081806207C0EE89FF8937
:100F80006083E889F98980818064808381E090E0D2
:100F9000DF91CF911F910F91FF90EF900895CF9324
:100FA000DF93EC01888D8823C1F0EA89FB89808179
:100FB00085FD05C0A889B9898C9186FD0EC00FB644
:100FC00007FCF5CF808185FFF2CFA889B9898C9184
:100FD00085FFEDCFCE017CDFE8CFDF91CF91089583
:100FE0000E94D210FC0124813581232B31F421E0B1
:100FF00061157105A1F0FB0108C0FC0180819181A0
:101000006115710531F421E0FC018081882339F0FC
:1010100005C00E94DF1021E0892B09F020E0822F1B
:1010200008950F931F93CF93DF93EC0188819981EB
:10103000009729F02A813B812617370780F48B011E
:101040006F5F7F4FCBD7009761F0998388831B83B5
:101050000A832C813D81232B11F4FC01108281E055
:1010600001C080E0DF91CF911F910F910895EF9221
:10107000FF920F931F93CF93DF93EC017B018A01C3
:10108000BA01CFDF2881398181110CC021153105CA
:1010900011F0C9010BD7198218821D821C821B8294
:1010A0001A8206C01D830C83B701C9010E94E81093
:1010B000CE01DF91CF911F910F91FF90EF90089596
:1010C0001F920F920FB60F9211240BB60F922F930F
:1010D0003F934F935F936F937F938F939F93AF93C0
:1010E000BF93EF93FF9384ED93E0F2DEFF91EF91D6
:1010F000BF91AF919F918F917F916F915F914F9130
:101100003F912F910F900BBE0F900FBE0F901F902D
:1011100018951F920F920FB60F9211240BB60F92D3
:101120002F938F939F93EF93FF93E091E403F091BC
:10113000E5038081E091EA03F091EB0382FD12C0A8
:1011400090818091ED038F5F8F732091EE03821762
:1011500051F0E091ED03F0E0EC52FC4F958F80935D
:10116000ED0301C08081FF91EF919F918F912F91AD
:101170000F900BBE0F900FBE0F901F9018952FB7BA
:10118000F8948091880490918904A0918A04B09188
:101190008B042FBF8093DC039093DD03A093DE03C9
:1011A000B093DF03E091D403F091D5030680F7817B
:1011B000E02D84ED93E0199597FF26C02FB7F894A2
:1011C0008091880490918904A0918A04B0918B0445
:1011D0002FBF4091DC035091DD036091DE037091DD
:1011E000DF03841B950BA60BB70B4091D8035091DE
:1011F000D9036091DA037091DB0384179507A60782
:10120000B70780F28FEF9FEF08953FB7F894809172
:10121000840490918504A0918604B091870426B53A
:10122000A89B05C02F3F19F00196A11DB11D3FBF1E
:10123000BA2FA92F982F8827820F911DA11DB11DAC
:10124000BC01CD0142E0660F771F881F991F4A95A8
:10125000D1F708952091D3039091D203213208F061
:101260004AC08091AF038111FCCF32E03093AF03CD
:1012700031E03093AE033FEF3093AD031092AC03F7
:101280002093AB03A2EBB3E04BE853E0FA013E2F0F
:10129000341B321718F43D913193F9CF10928A0321
:1012A00020918A03990F922B90938A03909189033E
:1012B000913061F41092890390918A039093BB005E
:1012C0009091BC0093FDF8CF95EC01C095EE909302
:1012D000BC009091AF039230E1F39091AD039F3F3A
:1012E00079F08091AD03803241F08091AD0380337D
:1012F00031F084E005C081E003C082E001C083E0FA
:101300001092B1031092D3031092B00308959091FC
:10131000AF039111FCCF613208F060E291E090934D
:10132000AF039093AE032FEF2093AD031092AC0365
:10133000260F2093AB0390938A0390918A03880F22
:10134000892B80938A0380918903813061F4109204
:10135000890380918A038093BB008091BC0083FD48
:10136000F8CF85EC01C085EE8093BC008091AF037F
:101370008130E1F38091AC03861710F46091AC03E7
:10138000ABE8B3E029E633E0F9018E2F821B861724
:1013900018F48D918193F9CF1092680360936703DD
:1013A000862F0895009761F0FC0101900020E9F775
:1013B0003197AF01481B590BBC0184ED93E026CD5A
:1013C00080E090E008958F929F92AF92BF920F932A
:1013D0001F93CF93DF93CDB7DEB7A1970FB6F894E5
:1013E000DEBF0FBECDBF19A2423008F44AE08E0125
:1013F0000F5D1F4F842E912CA12CB12CA5019401BF
:10140000FDD3E62FB901CA0101501109EA3014F4E5
:10141000E05D01C0E95CD801EC93232B242B252B44
:1014200069F7C801BFDFA1960FB6F894DEBF0FBE03
:10143000CDBFDF91CF911F910F91BF90AF909F9043
:101440008F900895CF93DF93ADDFEC018CE193E0B3
:10145000A9DF8C0F9D1FDF91CF910895CF92DF926E
:10146000EF92FF92CF93DF936C01990FEE08FF0884
:10147000F7FE1EC0E091D403F091D5030190F081F6
:10148000E02D6DE284ED93E01995EC016627772756
:10149000CB016C197D098E099F094AE094DF8C0FFE
:1014A0009D1FDF91CF91FF90EF90DF90CF90089537
:1014B0004AE0C701B601DF91CF91FF90EF90DF9036
:1014C000CF9081CF90E0FC01E254FE4F4491FC01AB
:1014D000E858FE4F2491FC01EE5CFE4F9491992355
:1014E00009F465C0442309F454C050E0FA0131976F
:1014F000E231F10508F04DC08827E658FF4F8F4FC5
:101500009FC3809180008F7707C0809180008F7D7E
:1015100003C080918000877F809380003AC084B5AB
:101520008F7702C084B58F7D84BD33C08091B000B9
:101530008F7703C08091B0008F7D8093B00029C069
:10154000809190008F7707C0809190008F7D03C0BD
:1015500080919000877F809390001BC08091A000B5
:101560008F7707C08091A0008F7D03C08091A0007D
:10157000877F8093A0000DC0809120018F7707C0E6
:10158000809120018F7D03C080912001877F80930F
:101590002001E92FF0E0EE0FFF1FE85EFE4FA5915E
:1015A000B4918FB7F894EC912E2B2C938FBF0895A4
:1015B000EF92FF920F931F93CF93DF937B018C01E8
:1015C000C0E0D0E0CE15DF0559F0D9DD97FD08C0A9
:1015D0008A30910529F0F80181938F012196F2CF8D
:1015E000CE01DF91CF911F910F91FF90EF90089561
:1015F000EF92FF920F931F93CF93DF931F921F924F
:10160000CDB7DEB78C01FC011182108213821282E9
:101610001582148240E050E06EE173E028DDAFDD1A
:1016200097FD1FC08A309105E1F089831A82F80185
:10163000E480F580FFEFEF1AFF0AB701C801F1DC83
:10164000882369F3F8012081318184819581BE016D
:101650006F5F7F4F820F931FBBD5F801F582E48245
:10166000DECFC8010F900F90DF91CF911F910F91A6
:10167000FF90EF9008958F929F92AF92BF92CF927A
:10168000DF92EF92FF926B017C01BFDD4B015C01A9
:10169000C114D104E104F104E9F0B7DDDC01CB01B0
:1016A00088199909AA09BB09883E9340A105B1058B
:1016B00078F321E0C21AD108E108F10888EE880E1B
:1016C00083E0981EA11CB11CC114D104E104F104F3
:1016D00021F7DECFFF90EF90DF90CF90BF90AF90DB
:1016E0009F908F9008951F920F920FB60F92112422
:1016F0002F933F938F939F93AF93BF9380918804D1
:1017000090918904A0918A04B0918B043091830454
:1017100023E0230F2D3720F40196A11DB11D05C034
:1017200026E8230F0296A11DB11D20938304809308
:10173000880490938904A0938A04B0938B048091C9
:10174000840490918504A0918604B0918704019649
:10175000A11DB11D8093840490938504A0938604F9
:10176000B0938704BF91AF919F918F913F912F913B
:101770000F900FBE0F901F90189580917D0490914F
:101780007E0494C3789484B5826084BD84B58160FE
:1017900084BD85B5826085BD85B5816085BD80913C
:1017A0006E00816080936E001092810080918100B4
:1017B00082608093810080918100816080938100AC
:1017C000809180008160809380008091B10084606E
:1017D0008093B1008091B00081608093B0008091CF
:1017E000910082608093910080919100816080934C
:1017F0009100809190008160809390008091A10081
:1018000082608093A1008091A10081608093A100FB
:101810008091A00081608093A0008091210182606E
:101820008093210180912101816080932101809129
:10183000200181608093200180917A0084608093F0
:101840007A0080917A00826080937A0080917A0099
:10185000816080937A0080917A00806880937A001A
:101860001092C100E091E403F091E50382E08083EF
:10187000E091E003F091E1031082E091E203F09146
:10188000E3038FEC80831092EC03E091E803F09186
:10189000E90386E08083E091E603F091E70380812D
:1018A00080618083E091E603F091E70380818860A6
:1018B0008083E091E603F091E70380818068808374
:1018C000E091E603F091E70380818F7D80831092A1
:1018D0006803109267031092B1031092D303109221
:1018E000AF03C1E0C093AE031092890384E1EADD47
:1018F00085E1E8DD8091B9008E7F8093B900809109
:10190000B9008D7F8093B90088E48093B80085E4A6
:101910008093BC00C093B00388E68093D2031092FA
:10192000B1031092D30360E081E794E00E94C30109
:1019300091DC61E070E088E690E0E9DC809167038B
:1019400090E020916803821B910981309105E9F7AD
:1019500081E794E00E9446017C0187FF17C081E087
:101960008093B00388E68093D2031092B103109263
:10197000D30360E081E794E00E94C301B7016F7771
:10198000772781E794E00E94C30164DC0E94510341
:10199000C1E068EE73E080E090E06DDEC093B003DC
:1019A0001092D2031092B1031092D30368E481E73E
:1019B00094E00E94C3014EDC62E070E088E490E0B5
:1019C000A6DC90916703809168039817F1F381E793
:1019D00094E00E9446018C0181E794E00E94460158
:1019E0007C01B801110F880B990BFFD34B015C01EF
:1019F000C70124E0959587952A95E1F7BC01990FD9
:101A0000880B990BF2D320E030E040E85DE34CD442
:101A10009B01AC01C501B4011CD16B017C014B01E0
:101A20005C019B01AC01A9D1882319F08EE093E001
:101A300018C026013701E89477F82FEF3FEF4FE702
:101A40005FE7C301B20199D181110DC02FEF3FEFC4
:101A50004FE75FE7C301B201C2D3181624F482E155
:101A600093E0A0DC6CC02FEF3FEF4FE75FE4C701CE
:101A7000B6017FD118161CF486E193E0F2CF2FEF68
:101A80003FEF4FE75FECC701B601A9D387FDF4CF65
:101A900020E030E0A901C701B601A1D387FF11C042
:101AA000E091D403F091D5030190F081E02D6DE237
:101AB00084ED93E0199546015701B7FAB094B7F851
:101AC000B0942AE037ED43EA5BE3C501B401C1D02D
:101AD0004B015C0122D16B017C0185D39B01AC01E0
:101AE000C501B401B5D04B015C014AE0C701B601A4
:101AF0006ADC8AE193E056DC20E030E040E251E429
:101B0000C501B401D1D34B015C0107D16B01E12CBC
:101B1000F12C4AE0C701B60156DCC701B60163D318
:101B20009B01AC01C501B40193D020E030E040E25C
:101B300051E4BAD3F2D080E090E04AE044DC8CE19A
:101B400093E030DC2FD925CFE4EDF3E0138212824D
:101B500088EE93E0A0E0B0E084839583A683B7830A
:101B60002AE032E03183208325EC30E0358724877A
:101B700024EC30E03787268720EC30E0318B208B57
:101B800021EC30E0338B228B22EC30E0358B248B40
:101B900026EC30E0378B268B118E128E138E148E2E
:101BA000E1E7F4E01382128284839583A683B783EE
:101BB0008AE192E091838083EDE7F4E01182108264
:101BC000138212821582148240E050E06EE173E0CD
:101BD000CF014DCAAA1BBB1B51E107C0AA1FBB1FE7
:101BE000A617B70710F0A61BB70B881F991F5A95A9
:101BF000A9F780959095BC01CD010895A1E21A2E18
:101C0000AA1BBB1BFD010DC0AA1FBB1FEE1FFF1FA0
:101C1000A217B307E407F50720F0A21BB30BE40BF0
:101C2000F50B661F771F881F991F1A9469F7609537
:101C30007095809590959B01AC01BD01CF010895F1
:101C4000EE0FFF1F881F8BBF0790F691E02D1994B0
:101C50005058BB27AA270ED0A1C392D330F097D3F8
:101C600020F031F49F3F11F41EF487C30EF4E09589
:101C7000E7FB7DC3E92FA3D380F3BA17620773078D
:101C80008407950718F071F49EF5BBC30EF4E09538
:101C90000B2EBA2FA02D0B01B90190010C01CA0126
:101CA000A0011124FF27591B99F0593F50F4503ED1
:101CB00068F11A16F040A22F232F342F4427585FC3
:101CC000F3CF469537952795A795F0405395C9F7DB
:101CD0007EF41F16BA0B620B730B840BBAF0915093
:101CE000A1F0FF0FBB1F661F771F881FC2F70EC032
:101CF000BA0F621F731F841F48F487957795679505
:101D0000B795F7959E3F08F0B3CF9395880F08F0ED
:101D10009927EE0F97958795089559D388F09F5787
:101D200090F0B92F9927B751A0F0D1F0660F771F27
:101D3000881F991F1AF0BA95C9F712C0B13081F007
:101D400060D3B1E008955DC3672F782F8827B85F0F
:101D500039F0B93FCCF3869577956795B395D9F768
:101D60003EF490958095709561957F4F8F4F9F4F72
:101D7000089576D208F48FEF089572D2880B990BEC
:101D80000895CF93DF938230910510F482E090E0C4
:101D9000E0918E04F0918F0420E030E0C0E0D0E0CC
:101DA000309711F14081518148175907C0F0481709
:101DB000590761F482819381209719F09B838A836C
:101DC0002BC090938F0480938E0426C0211531057B
:101DD00019F04217530718F49A01BE01DF01EF0111
:101DE0000280F381E02DDCCF2115310509F1281B9C
:101DF000390B2430310590F412968D919C911397F4
:101E00006115710521F0FB019383828304C09093D7
:101E10008F0480938E04FD01329644C0FD01E20FD1
:101E2000F31F81939193225031092D933C933AC033
:101E300020918C0430918D04232B41F420910202D7
:101E40003091030230938D0420938C042091000282
:101E5000309101022115310541F42DB73EB7409173
:101E6000040250910502241B350BE0918C04F09183
:101E70008D04E217F307A0F42E1B3F0B2817390738
:101E800078F0AC014E5F5F4F2417350748F04E0FD6
:101E90005F1F50938D0440938C048193919302C0F3
:101EA000E0E0F0E0CF01DF91CF9108950F931F9311
:101EB000CF93DF93009709F48CC0FC013297138213
:101EC000128200918E0410918F040115110581F486
:101ED00020813181820F931F20918C0430918D04D9
:101EE0002817390779F5F0938D04E0938C0471C0BD
:101EF000D80140E050E0AE17BF0750F412962D9184
:101F00003C911397AD012115310509F1D901F3CFAA
:101F10009D01DA013383228360817181860F971FCF
:101F20008217930769F4EC0128813981260F371F46
:101F30002E5F3F4F318320838A819B8193838283ED
:101F4000452B29F4F0938F04E0938E0442C013963E
:101F5000FC93EE931297ED01499159919E01240F44
:101F6000351FE217F30771F480819181840F951F6B
:101F7000029611969C938E938281938113969C93E3
:101F80008E931297E0E0F0E0D80112968D919C912B
:101F90001397009719F0F8018C01F6CF8D919C9161
:101FA00098012E5F3F4F820F931F20918C04309138
:101FB0008D042817390769F4309729F410928F049B
:101FC00010928E0402C01382128210938D0400932B
:101FD0008C04DF91CF911F910F9108956F927F92A2
:101FE0008F929F92AF92BF92CF92DF92EF92FF9229
:101FF0000F931F93CF93DF93EC01009781F4CB01F4
:10200000DF91CF911F910F91FF90EF90DF90CF90D4
:10201000BF90AF909F908F907F906F90B2CEFC0159
:10202000E60FF71F9C0122503109E217F30708F46D
:10203000A8C0D9010D911C91119706171707A8F098
:102040000530110508F49BC0C8010497861797074F
:1020500008F495C002501109061B170B0193119348
:102060006D937C93CF0122DF8AC05B01A01AB10A75
:102070004C01800E911EA0918E04B0918F0440E01F
:1020800050E0E12CF12C109709F44AC0A815B905CD
:10209000D1F56D907C901197630182E0C80ED11C40
:1020A000CA14DB0480F1A3014A195B096A0182E0CA
:1020B000C80ED11C1296BC9012971396AC91B5E045
:1020C000CB16D10440F0B282A38351834083D9015F
:1020D0006D937C930AC00E5F1F4FC301800F911F49
:1020E000F90191838083EB2DFA2FE114F10431F093
:1020F000D7011396FC93EE93129741C0F0938F048F
:10210000E0938E043CC08D919C911197481759071C
:1021100008F4AC017D0112960D90BC91A02DB3CFB7
:1021200080918C0490918D0488159905E1F44617EF
:102130005707C8F48091000290910102009741F482
:102140008DB79EB74091040250910502841B950BF8
:10215000E817F907B0F4F0938D04E0938C04F901CB
:10216000718360830CC0CB010CDE7C01009749F0C9
:10217000A801BE011BD0CE0199DEC70104C0CE016B
:1021800002C080E090E0DF91CF911F910F91FF900E
:10219000EF90DF90CF90BF90AF909F908F907F9007
:1021A0006F90089581E090E0F89432C1FB01DC016A
:1021B00002C001900D9241505040D8F70895FB01A4
:1021C000DC018D91019080190110D9F3990B0895CC
:1021D000FB01DC0101900D920020E1F7089540D051
:1021E00008F481E00895E89409C097FB3EF49095C7
:1021F0008095709561957F4F8F4F9F4F9923A9F0E0
:10220000F92F96E9BB279395F6958795779567956E
:10221000B795F111F8CFFAF4BB0F11F460FF1BC0B2
:102220006F5F7F4F8F4F9F4F16C0882311F096E945
:1022300011C0772321F09EE8872F762F05C06623F3
:1022400071F096E8862F70E060E02AF09A95660FAC
:10225000771F881FDAF7880F9695879597F9089565
:10226000990F0008550FAA0BE0E8FEEF16161706A7
:10227000E807F907C0F012161306E407F50798F00F
:10228000621B730B840B950B39F40A2661F0232B28
:10229000242B252B21F408950A2609F4A140A695A4
:1022A0008FEF811D811D08950BD078C069D028F073
:1022B0006ED018F0952309F05AC05FC01124A2C057
:1022C0007ED0A0F3959FD1F3950F50E0551F629FEC
:1022D000F001729FBB27F00DB11D639FAA27F00D7F
:1022E000B11DAA1F649F6627B00DA11D661F829FA6
:1022F0002227B00DA11D621F739FB00DA11D621F8B
:10230000839FA00D611D221F749F3327A00D611DA7
:10231000231F849F600D211D822F762F6A2F112489
:102320009F5750408AF0E1F088234AF0EE0FFF1FDC
:10233000BB1F661F771F881F91505040A9F79E3F13
:10234000510570F014C05EC05F3FECF3983EDCF3C3
:10235000869577956795B795F795E7959F5FC1F750
:10236000FE2B880F911D9695879597F9089597F9FB
:102370009F6780E870E060E008959FEF80EC08952B
:1023800000240A9416161706180609060895002454
:102390000A9412161306140605060895092E0394CE
:1023A000000C11F4882352F0BB0F40F4BF2B11F442
:1023B00060FF04C06F5F7F4F8F4F9F4F089557FDA1
:1023C0009058440F551F59F05F3F71F04795880FA3
:1023D00097FB991F61F09F3F79F08795089512163A
:1023E00013061406551FF2CF4695F1DF08C01616E6
:1023F00017061806991FF1CF869571056105089497
:102400000895E894BB2766277727CB0197F90895AD
:1024100011E0C3E0D1E000E005C0802FFE0110DC38
:102420002196011DC430D10780E00807B1F7F89468
:02243000FFCFDC
:10243200000090048000000000008907060753078F
:1024420031074507CF0700000000C30194015A017C
:10245200460137013601207365636F6E6465732030
:1024620000206D696E757465732000206865757251
:102472006573202020002F00736574757020636CD3
:102482006F636B005245474C414745204445204C01
:1024920027484555524500736563006D696E0068B3
:1024A200006A6F75720064617465006D6F69730014
:1024B200616E6EE9650072656773697472650064C6
:1024C2006F6E6500506172616D657472657A207419
:1024D2006F75746573206C657320646F6E6EE96549
:1024E2007320E963726972652022646F6E6522202F
:1024F200656E7472E9657320706F737369626C65DF
:10250200733A207365632C206D696E2C20682C2031
:102512006A6F75722C20646174652C206D6F69730B
:102522002C20616E6EE9652C207265676973747286
:1025320065007072696E7420636C6F636B006E610C
:102542006E00696E66006F7666002E000D0A00004E
:00000001FF
